{
  "address": "0xA36e5Fa96dBc93C13276e0A7Da09fe7A8010fB45",
  "abi": [
    {
      "inputs": [
        {
          "internalType": "address",
          "name": "_uniswapRouter",
          "type": "address"
        },
        {
          "internalType": "address",
          "name": "_weth",
          "type": "address"
        }
      ],
      "stateMutability": "nonpayable",
      "type": "constructor"
    },
    {
      "anonymous": false,
      "inputs": [
        {
          "indexed": true,
          "internalType": "uint256",
          "name": "id",
          "type": "uint256"
        },
        {
          "indexed": true,
          "internalType": "address",
          "name": "token",
          "type": "address"
        },
        {
          "indexed": false,
          "internalType": "address",
          "name": "swapAddress",
          "type": "address"
        },
        {
          "indexed": false,
          "internalType": "uint256",
          "name": "slippage",
          "type": "uint256"
        }
      ],
      "name": "SwapDeployed",
      "type": "event"
    },
    {
      "inputs": [],
      "name": "UNISWAP_ROUTER",
      "outputs": [
        {
          "internalType": "address",
          "name": "",
          "type": "address"
        }
      ],
      "stateMutability": "view",
      "type": "function"
    },
    {
      "inputs": [],
      "name": "WETH",
      "outputs": [
        {
          "internalType": "address",
          "name": "",
          "type": "address"
        }
      ],
      "stateMutability": "view",
      "type": "function"
    },
    {
      "inputs": [
        {
          "internalType": "address",
          "name": "_token",
          "type": "address"
        },
        {
          "internalType": "uint256",
          "name": "_slippage",
          "type": "uint256"
        }
      ],
      "name": "deploySwap",
      "outputs": [],
      "stateMutability": "nonpayable",
      "type": "function"
    },
    {
      "inputs": [
        {
          "internalType": "uint256",
          "name": "",
          "type": "uint256"
        }
      ],
      "name": "deployments",
      "outputs": [
        {
          "internalType": "uint256",
          "name": "id",
          "type": "uint256"
        },
        {
          "internalType": "address",
          "name": "swapAddress",
          "type": "address"
        },
        {
          "internalType": "address",
          "name": "token",
          "type": "address"
        },
        {
          "internalType": "uint256",
          "name": "slippage",
          "type": "uint256"
        }
      ],
      "stateMutability": "view",
      "type": "function"
    }
  ],
  "transactionHash": "0x78ac4bf3afacd8d331dec1b8048136dff4acbe871e75cb667f26713720200ced",
  "args": [
    "0x7a250d5630B4cF539739dF2C5dAcb4c659F2488D",
    "0xC02aaA39b223FE8D0A0e5C4F27eAD9083C756Cc2"
  ],
  "numDeployments": 1,
  "solcInputHash": "28a4c2e8201c59273a9da68444727708",
  "bytecode": "0x60c060405234801561001057600080fd5b50604051610ae4380380610ae483398101604081905261002f91610062565b6001600160a01b039182166080521660a052610095565b80516001600160a01b038116811461005d57600080fd5b919050565b6000806040838503121561007557600080fd5b61007e83610046565b915061008c60208401610046565b90509250929050565b60805160a051610a1e6100c66000396000818160b7015261018d01526000818160f6015261016c0152610a1e6000f3fe608060405234801561001057600080fd5b506004361061004c5760003560e01c806306609bbe14610051578063ac7a36a21461009d578063ad5c4648146100b2578063d8264920146100f1575b600080fd5b61006461005f36600461034e565b610118565b60405161009494939291909384526001600160a01b03928316602085015291166040830152606082015260800190565b60405180910390f35b6100b06100ab366004610367565b61015e565b005b6100d97f000000000000000000000000000000000000000000000000000000000000000081565b6040516001600160a01b039091168152602001610094565b6100d97f000000000000000000000000000000000000000000000000000000000000000081565b6000818154811061012857600080fd5b600091825260209091206004909102018054600182015460028301546003909301549193506001600160a01b0390811692169084565b6000808054905090506000817f00000000000000000000000000000000000000000000000000000000000000007f000000000000000000000000000000000000000000000000000000000000000086866040516101ba90610341565b9485526001600160a01b03938416602086015291831660408501529091166060830152608082015260a001604051809103906000f080158015610201573d6000803e3d6000fd5b50604080516080810182528481526001600160a01b0383811660208084018281528a8416858701818152606087018c815260008054600181018255908052975160049098027f290decd9548b62a8d60345a988386fc84ba6bc95484008f6362f93160ef3e56381019890985592517f290decd9548b62a8d60345a988386fc84ba6bc95484008f6362f93160ef3e564880180549188166001600160a01b031992831617905590517f290decd9548b62a8d60345a988386fc84ba6bc95484008f6362f93160ef3e5658801805491909716911617909455517f290decd9548b62a8d60345a988386fc84ba6bc95484008f6362f93160ef3e56690940193909355835190815291820187905292935084917f65adc3b1edc7cfd9832f22e17bd64a5854b9d4846c6f1e97be9abb1a6fae23b3910160405180910390a350505050565b610649806103a083390190565b60006020828403121561036057600080fd5b5035919050565b6000806040838503121561037a57600080fd5b82356001600160a01b038116811461039157600080fd5b94602093909301359350505056fe61012060405234801561001157600080fd5b5060405161064938038061064983398101604081905261003091610073565b60c0949094526001600160a01b0392831660805290821660a0521660e052610100526100ca565b80516001600160a01b038116811461006e57600080fd5b919050565b600080600080600060a0868803121561008b57600080fd5b8551945061009b60208701610057565b93506100a960408701610057565b92506100b760608701610057565b9150608086015190509295509295909350565b60805160a05160c05160e0516101005161050c61013d6000396000818161017c015261030f0152600081816101ee015261040a015260006103a2015260008181604c01528181610100015281816101c9015261035601526000818160d20152818161028e01526103d6015261050c6000f3fe60806040526004361061004a5760003560e01c80633e032a3b146102fd578063ad5c464814610344578063af640d0f14610390578063d8264920146103c4578063fc0c546a146103f8575b7f00000000000000000000000000000000000000000000000000000000000000006001600160a01b031663d0e30db0346040518263ffffffff1660e01b81526004016000604051808303818588803b1580156100a557600080fd5b505af11580156100b9573d6000803e3d6000fd5b505060405163095ea7b360e01b81526001600160a01b037f0000000000000000000000000000000000000000000000000000000000000000811660048301523460248301527f000000000000000000000000000000000000000000000000000000000000000016935063095ea7b3925060440190506020604051808303816000875af115801561014d573d6000803e3d6000fd5b505050506040513d601f19601f82011682018060405250810190610171919061042c565b5060006127106101a17f00000000000000000000000000000000000000000000000000000000000000008261046b565b6101ab9034610484565b6101b5919061049b565b6040805160e0810182526001600160a01b037f0000000000000000000000000000000000000000000000000000000000000000811682527f0000000000000000000000000000000000000000000000000000000000000000811660208301908152610bb883850190815233606085019081523460808601908152600060a0870181815260c0880191825297516304e45aaf60e01b8152875187166004820152945186166024860152925162ffffff166044850152905184166064840152516084830152935160a48201529251811660c4840152929350917f000000000000000000000000000000000000000000000000000000000000000016906304e45aaf9060e4016020604051808303816000875af11580156102d7573d6000803e3d6000fd5b505050506040513d601f19601f820116820180604052508101906102fb91906104bd565b005b34801561030957600080fd5b506103317f000000000000000000000000000000000000000000000000000000000000000081565b6040519081526020015b60405180910390f35b34801561035057600080fd5b506103787f000000000000000000000000000000000000000000000000000000000000000081565b6040516001600160a01b03909116815260200161033b565b34801561039c57600080fd5b506103317f000000000000000000000000000000000000000000000000000000000000000081565b3480156103d057600080fd5b506103787f000000000000000000000000000000000000000000000000000000000000000081565b34801561040457600080fd5b506103787f000000000000000000000000000000000000000000000000000000000000000081565b60006020828403121561043e57600080fd5b8151801515811461044e57600080fd5b9392505050565b634e487b7160e01b600052601160045260246000fd5b8181038181111561047e5761047e610455565b92915050565b808202811582820484141761047e5761047e610455565b6000826104b857634e487b7160e01b600052601260045260246000fd5b500490565b6000602082840312156104cf57600080fd5b505191905056fea26469706673582212206c5a23d2628879f56c9068c3c0fa31279fc6d7025c855edc2500034d6bb1aa8664736f6c63430008110033a2646970667358221220dd3b3bfbb933bbb9405d0205eed7e0335a1bc96e55c0772eccbb60d6c45d235464736f6c63430008110033",
  "devdoc": {
    "kind": "dev",
    "methods": {},
    "version": 1
  },
  "userdoc": {
    "kind": "user",
    "methods": {},
    "version": 1
  },
  "storageLayout": {
    "storage": [
      {
        "astId": 89,
        "contract": "contracts/RapidSwapFactory.sol:RapidSwapFactory",
        "label": "deployments",
        "offset": 0,
        "slot": "0",
        "type": "t_array(t_struct(SwapDeployment)98_storage)dyn_storage"
      }
    ],
    "types": {
      "t_address": {
        "encoding": "inplace",
        "label": "address",
        "numberOfBytes": "20"
      },
      "t_array(t_struct(SwapDeployment)98_storage)dyn_storage": {
        "base": "t_struct(SwapDeployment)98_storage",
        "encoding": "dynamic_array",
        "label": "struct RapidSwapFactory.SwapDeployment[]",
        "numberOfBytes": "32"
      },
      "t_struct(SwapDeployment)98_storage": {
        "encoding": "inplace",
        "label": "struct RapidSwapFactory.SwapDeployment",
        "members": [
          {
            "astId": 91,
            "contract": "contracts/RapidSwapFactory.sol:RapidSwapFactory",
            "label": "id",
            "offset": 0,
            "slot": "0",
            "type": "t_uint256"
          },
          {
            "astId": 93,
            "contract": "contracts/RapidSwapFactory.sol:RapidSwapFactory",
            "label": "swapAddress",
            "offset": 0,
            "slot": "1",
            "type": "t_address"
          },
          {
            "astId": 95,
            "contract": "contracts/RapidSwapFactory.sol:RapidSwapFactory",
            "label": "token",
            "offset": 0,
            "slot": "2",
            "type": "t_address"
          },
          {
            "astId": 97,
            "contract": "contracts/RapidSwapFactory.sol:RapidSwapFactory",
            "label": "slippage",
            "offset": 0,
            "slot": "3",
            "type": "t_uint256"
          }
        ],
        "numberOfBytes": "128"
      },
      "t_uint256": {
        "encoding": "inplace",
        "label": "uint256",
        "numberOfBytes": "32"
      }
    }
  }
}