{
  "address": "0xB9a6F2e13ebAA26021Aa4417c616db779054F1eC",
  "abi": [
    {
      "inputs": [
        {
          "internalType": "address",
          "name": "_uniswapRouter",
          "type": "address"
        },
        {
          "internalType": "address",
          "name": "_weth",
          "type": "address"
        }
      ],
      "stateMutability": "nonpayable",
      "type": "constructor"
    },
    {
      "anonymous": false,
      "inputs": [
        {
          "indexed": true,
          "internalType": "uint256",
          "name": "id",
          "type": "uint256"
        },
        {
          "indexed": true,
          "internalType": "address",
          "name": "token",
          "type": "address"
        },
        {
          "indexed": false,
          "internalType": "address",
          "name": "swapAddress",
          "type": "address"
        }
      ],
      "name": "SwapDeployed",
      "type": "event"
    },
    {
      "inputs": [],
      "name": "UNISWAP_ROUTER",
      "outputs": [
        {
          "internalType": "address",
          "name": "",
          "type": "address"
        }
      ],
      "stateMutability": "view",
      "type": "function"
    },
    {
      "inputs": [],
      "name": "WETH",
      "outputs": [
        {
          "internalType": "address",
          "name": "",
          "type": "address"
        }
      ],
      "stateMutability": "view",
      "type": "function"
    },
    {
      "inputs": [
        {
          "internalType": "address",
          "name": "_token",
          "type": "address"
        }
      ],
      "name": "deploySwap",
      "outputs": [],
      "stateMutability": "nonpayable",
      "type": "function"
    },
    {
      "inputs": [
        {
          "internalType": "uint256",
          "name": "",
          "type": "uint256"
        }
      ],
      "name": "deployments",
      "outputs": [
        {
          "internalType": "uint256",
          "name": "id",
          "type": "uint256"
        },
        {
          "internalType": "address",
          "name": "swapAddress",
          "type": "address"
        },
        {
          "internalType": "address",
          "name": "token",
          "type": "address"
        }
      ],
      "stateMutability": "view",
      "type": "function"
    }
  ],
  "transactionHash": "0x99adddf8d96b8a58f3b051e01389b53a1383cf67c3b9fe48c9aa275b1b15b17b",
  "args": [
    "0x68b3465833fb72A70ecDF485E0e4C7bD8665Fc45",
    "0x4200000000000000000000000000000000000006"
  ],
  "numDeployments": 2,
  "solcInputHash": "89fe3d180f9d6d905829260d645aa532",
  "bytecode": "0x60c060405234801561001057600080fd5b5060405161098238038061098283398101604081905261002f91610062565b6001600160a01b039182166080521660a052610095565b80516001600160a01b038116811461005d57600080fd5b919050565b6000806040838503121561007557600080fd5b61007e83610046565b915061008c60208401610046565b90509250929050565b60805160a0516108bc6100c6600039600081816093015261017801526000818160d2015261015701526108bc6000f3fe608060405234801561001057600080fd5b506004361061004c5760003560e01c806306609bbe14610051578063ad5c46481461008e578063d8264920146100cd578063f6ef054f146100f4575b600080fd5b61006461005f366004610300565b610109565b604080519384526001600160a01b0392831660208501529116908201526060015b60405180910390f35b6100b57f000000000000000000000000000000000000000000000000000000000000000081565b6040516001600160a01b039091168152602001610085565b6100b57f000000000000000000000000000000000000000000000000000000000000000081565b610107610102366004610319565b610149565b005b6000818154811061011957600080fd5b60009182526020909120600390910201805460018201546002909201549092506001600160a01b03918216911683565b6000808054905090506000817f00000000000000000000000000000000000000000000000000000000000000007f0000000000000000000000000000000000000000000000000000000000000000856040516101a4906102f3565b9384526001600160a01b0392831660208501529082166040840152166060820152608001604051809103906000f0801580156101e4573d6000803e3d6000fd5b50604080516060810182528481526001600160a01b0383811660208084018281528984168587018181526000805460018101825590805296517f290decd9548b62a8d60345a988386fc84ba6bc95484008f6362f93160ef3e56360039098029788015591517f290decd9548b62a8d60345a988386fc84ba6bc95484008f6362f93160ef3e564870180546001600160a01b031990811692881692909217905591517f290decd9548b62a8d60345a988386fc84ba6bc95484008f6362f93160ef3e56590960180549092169590941694909417909355925192835292935084917f16419ec110924eb195de71006730e51c0f8e1203945d0a1d296e385329f14be1910160405180910390a3505050565b61053d8061034a83390190565b60006020828403121561031257600080fd5b5035919050565b60006020828403121561032b57600080fd5b81356001600160a01b038116811461034257600080fd5b939250505056fe61010060405234801561001157600080fd5b5060405161053d38038061053d8339810160408190526100309161006e565b60c0939093526001600160a01b03918216608052811660a0521660e0526100bb565b80516001600160a01b038116811461006957600080fd5b919050565b6000806000806080858703121561008457600080fd5b8451935061009460208601610052565b92506100a260408601610052565b91506100b060608601610052565b905092959194509250565b60805160a05160c05160e05161042261011b600039600081816101a001526103880152600061031201526000818160410152818160f50152818161017b01526102c101526000818160c70152818161023e015261035401526104226000f3fe60806040526004361061003f5760003560e01c8063ad5c4648146102af578063af640d0f14610300578063d826492014610342578063fc0c546a14610376575b7f00000000000000000000000000000000000000000000000000000000000000006001600160a01b031663d0e30db0346040518263ffffffff1660e01b81526004016000604051808303818588803b15801561009a57600080fd5b505af11580156100ae573d6000803e3d6000fd5b505060405163095ea7b360e01b81526001600160a01b037f0000000000000000000000000000000000000000000000000000000000000000811660048301523460248301527f000000000000000000000000000000000000000000000000000000000000000016935063095ea7b3925060440190506020604051808303816000875af1158015610142573d6000803e3d6000fd5b505050506040513d601f19601f8201168201806040525081019061016691906103aa565b506040805160e0810182526001600160a01b037f0000000000000000000000000000000000000000000000000000000000000000811682527f0000000000000000000000000000000000000000000000000000000000000000811660208301908152610bb883850190815233606085019081523460808601908152600060a0870181815260c0880191825297516304e45aaf60e01b8152875187166004820152945186166024860152925162ffffff166044850152905184166064840152516084830152935160a48201529251811660c484015290917f0000000000000000000000000000000000000000000000000000000000000000909116906304e45aaf9060e4016020604051808303816000875af1158015610289573d6000803e3d6000fd5b505050506040513d601f19601f820116820180604052508101906102ad91906103d3565b005b3480156102bb57600080fd5b506102e37f000000000000000000000000000000000000000000000000000000000000000081565b6040516001600160a01b0390911681526020015b60405180910390f35b34801561030c57600080fd5b506103347f000000000000000000000000000000000000000000000000000000000000000081565b6040519081526020016102f7565b34801561034e57600080fd5b506102e37f000000000000000000000000000000000000000000000000000000000000000081565b34801561038257600080fd5b506102e37f000000000000000000000000000000000000000000000000000000000000000081565b6000602082840312156103bc57600080fd5b815180151581146103cc57600080fd5b9392505050565b6000602082840312156103e557600080fd5b505191905056fea26469706673582212207c267697ee1a4eb4b0954381a9531b2ecdbabb6a32d87dfffe7817879961ba1c64736f6c63430008110033a2646970667358221220c5d9f8ab4fe62a4c9a87e4df612e485ae2dd40d029a1dadaa6774f662c870d2764736f6c63430008110033",
  "devdoc": {
    "kind": "dev",
    "methods": {},
    "version": 1
  },
  "userdoc": {
    "kind": "user",
    "methods": {},
    "version": 1
  },
  "storageLayout": {
    "storage": [
      {
        "astId": 89,
        "contract": "contracts/RapidSwapFactory.sol:RapidSwapFactory",
        "label": "deployments",
        "offset": 0,
        "slot": "0",
        "type": "t_array(t_struct(SwapDeployment)96_storage)dyn_storage"
      }
    ],
    "types": {
      "t_address": {
        "encoding": "inplace",
        "label": "address",
        "numberOfBytes": "20"
      },
      "t_array(t_struct(SwapDeployment)96_storage)dyn_storage": {
        "base": "t_struct(SwapDeployment)96_storage",
        "encoding": "dynamic_array",
        "label": "struct RapidSwapFactory.SwapDeployment[]",
        "numberOfBytes": "32"
      },
      "t_struct(SwapDeployment)96_storage": {
        "encoding": "inplace",
        "label": "struct RapidSwapFactory.SwapDeployment",
        "members": [
          {
            "astId": 91,
            "contract": "contracts/RapidSwapFactory.sol:RapidSwapFactory",
            "label": "id",
            "offset": 0,
            "slot": "0",
            "type": "t_uint256"
          },
          {
            "astId": 93,
            "contract": "contracts/RapidSwapFactory.sol:RapidSwapFactory",
            "label": "swapAddress",
            "offset": 0,
            "slot": "1",
            "type": "t_address"
          },
          {
            "astId": 95,
            "contract": "contracts/RapidSwapFactory.sol:RapidSwapFactory",
            "label": "token",
            "offset": 0,
            "slot": "2",
            "type": "t_address"
          }
        ],
        "numberOfBytes": "96"
      },
      "t_uint256": {
        "encoding": "inplace",
        "label": "uint256",
        "numberOfBytes": "32"
      }
    }
  }
}